:1008A500E4F5A0C282C280C2817F38FE12098F7F23
:1008B500047E001208FD7F067E0012098F7F047EEC
:1008C500001208FD7F0C7E0012098F7F047E001246
:1008D50008FD7F017E0012098F7F047E001208FD4E
:0708E5007F807E0002098FF5
:1008EC0012095B7FE87E031208FD1209737FE87E14
:0108FC0003F8
:1008FD00E4FDFCC3ED9FEC9E5015E4FBFA0BBB0031
:0F090D00010ABA01F8BB7EF50DBD00010C80E4B4
:01091C0022B8
:04098B007F807E00EB
:10098F00C280C281D2828FA07F0A7E001208FDC270
:02099F008222B2
:1009A100D280C281D2828FA07F0A7E001208FDC24E
:0209B1008222A0
:10091D008B088A09890AAB08AA09A90A120942603B
:10092D0013050AE50A7002050914F9120942FF12AE
:05093D0009A180E22287
:10095B00900000B2877F027E001208FDA3E582B4EF
:07096B00CCF1E583B402ECBE
:010972002262
:10097300900000B2877F027E001208FDA3E582B4D7
:070983005EF1E583B401EC15
:01098A00224A
:0609D4001208F602095BA7
:0909CB001208EC1208F60209738F
:0C09B3001208EC12095B1208F90209732B
:0609DA001208EC02097393
:0309E00002097396
:100800007590FF7FB87E0B1208FD1208A520901C82
:1008100012098B7F027E001208FD7F411209A17F21
:10082000027E001208FD1209D40208A320911B12B7
:10083000098B7F027E001208FD7F421209A17F0210
:100840007E001208FD1209CB805920921B12098BE1
:100850007F027E001208FD7F431209A17F027E0005
:100860001208FD1209B3803B7F807E0020931B128B
:10087000098F7F027E001208FD7F441209A17F02CA
:100880007E001208FD1209DA801912098F7F027E9C
:10089000001208FD7F451209A17F027E001208FDAB
:0508A0001209E080FEDA
:030000000209BF33
:0C09BF00787FE4F6D8FD75810A0208007C
:10094200BB010689828A83E0225002E722BBFE02B3
:09095200E32289828A83E49322E6
:00000001FF
