:03000000020030CB
:03000B00020300ED
:0500300011400200E098
:1000400075900075A000B182B182B117B182748041
:10005000B154B182900800B174B182B18274C0B160
:1000600054B18290080BB174B182B182B100B10079
:0600700075901FB1822211
:1000E00075A882758901758A07758C007800D28C95
:0A00F000E59013400302012080F6A2
:10012000758900C28C75A800759000E875F020A450
:10013000243CF530E5F04002800104F531E58C7592
:10014000F064842530F53040028002053151009181
:040150000002003079
:10020000E53075F00A84A9F0E53175F00A847406CA
:10021000A475F00A84E925F075F00A84E5F024302D
:10022000F536E53075F00A84F9AAF0E53175F00A83
:1002300084FBACF07406A42A75F00A84FAEC75F01D
:1002400019A4FCE975F00A84E5F02AF535EB75F0A0
:1002500006A475F00A84E5F02535F535EC75F00A4D
:1002600084E5F0253575F00A84E5F02430F535E9AC
:1002700075F00A84F9E5F02AFAEB75F019A429F96A
:10028000EB75F006A42AFAEC75F00A8429F9E5F07A
:100290002A75F00A8429F9E975F00A84F8E5F02452
:0902A00030F534E82430F5332276
:0E030000C28CE804F8758C00758A05D28C3228
:10040000B117B1827480B154B182900818B174B13F
:1004100082B18274C0B154B182E533B163B182B1AB
:100420008274C1B154B182E534B163B182B18274D6
:10043000C2B154B182E535B163B182B18274C3B146
:1004400054B182E536B163B182B182B18274C5B173
:1004500054B182900826B174B182B182B100B1006A
:07046000B100B100B1002260
:100500007928758901758AB1758C30D28C308DFD52
:10051000C28CC28DD9EF2275A038C280C281D2822E
:10052000B182C282B18275A00CC280C281D282B176
:1005300082C282B18275A001C280C281D282B182A0
:10054000C282B18275A006C280C281D282B182C24B
:1005500082B18222F5A0C280C281D282B182C282DF
:10056000B18222F5A0D280C281D282B182C282B190
:1005700082B18222C0E0E4936005B163A380F7D02A
:10058000E022C000C001780179FFD9FED8FAD0017D
:03059000D0002276
:10080000546F67676C6520535731006966204C450B
:100810004420676C6F7773005265616374696F6E13
:100820002074696D65006D696C6C697365636F6ECA
:03083000647300EE
:00000001FF
