:0300000002002FCC
:03001B0002500090
:10002F0075A0007590003128312811BD3128312875
:10003F003128748011FA3128903000311A31287527
:10004F00A8887589117D3C7CAD7950C287D28E20EE
:10005F008E02800280F900791E7BEE7A46D28E31B5
:10006F0039791E7BF07A37D28E3139791E7BF27A4D
:10007F00BED28E3139791E7BF07A37D28E313979F3
:10008F00287BF57A78D28E31397914C287D28E20B7
:10009F008E02800280F90079287BF57A78D28E3132
:1000AF003979287BF47A31D28E313902002F75A03D
:1000BF0038C280C281D2823128C282312875A00C09
:1000CF00C280C281D2823128C282312875A001C27A
:1000DF0080C281D2823128C282312875A006C280A7
:1000EF00C281D2823128C282312822F5A0C280C2B9
:1000FF0081D2823128C282312822F5A0D280C281DA
:10010F00D2823128C2823128312822C0E0E49360A4
:10011F00053109A380F7D0E022C000C00178017932
:10012F00FFD9FED8FAD001D00022B2873143308EEA
:10013F000280F72285038C85028AD28C308DFDC216
:04014F008CC28D22AF
:0B50000085058D85048BD902C28E321D
:10300000524F4C4C494E472054494D45202A5F2A87
:0130100000BF
:00000001FF
